:1000000008308A0079280000D6376C3A61356510CF
:10001000E43220366110F432F236EF317538EC30CC
:10002000A0253A1025336D2B0D050000D6376C3A0C
:1000300061356510E43220366110F432F236EF316A
:100040007538EC3020253A1025336D2B0D05000155
:10005000D4326D386539613A75396110E432203631
:100060006110F432ED37E33A7036611DA012E621DB
:100070000D050000CC32633A753961104122431DF1
:10008000A0126C320D050000D6376C3A6135651050
:10009000E43220366110CC263319341DA012E63626
:1000A000D6060A00831603178C170C1400000000F4
:1000B0000318822883120C087F390313E00003170A
:1000C0000D080313E10003170F080313E200600893
:1000D0000C1E68289900610803178D00031362083D
:1000E00003178F0083168C170C1400000000831276
:1000F0000313DF0B7C287F28831603178228A1288F
:100100008316031783120C0D0E0D7F390313E000C5
:1001100003170D080313E10003170F080313E20090
:1001200060080C1E91289900610803178D000313C5
:10013000620803178F008D0A03198F0A0313DF0B60
:10014000522808006C0803192E298316A000700895
:10015000031DAC2883122E29A0070318BA287F306C
:10016000A0020318B52883122E29031DB928831273
:100170002E29C0288130A007031CC02883122E29F5
:100180002008F700F801F901FA0183126D088316BF
:10019000A400A41783126E088316A30083126F08AD
:1001A0008316A2001830A000A101221CF4287308B5
:1001B000FA07031CE128F90A031DE128F80A0319CC
:1001C000A1177208F907031CE828F80A0319A117F8
:1001D00071088312EE00EE176E08F807031CF3286F
:1001E0008316A11783128316A10DF80CF90CFA0CD3
:1001F000A40CA30CA20C0310A00BD4280130F70709
:10020000031C042983122E29F81B0E29A40DFA0DB4
:10021000F90DF80DF70B0E2983122E29A41F2129A1
:10022000FA0A031D2129F90A031D2129F80A031DD1
:100230002129F80CF90CFA0CF70A031D2129831265
:100240002E2983126D088316A1007108A106A11F33
:100250002B29F8173329F81333298312F701F801F2
:10026000F901FA0183168312080063080319FA29B9
:10027000EF0067080319FA29EF02031C44297F30B5
:10028000EF070318FA294A298130EF02031CFA29E3
:100290000319FA296F08F700F801F901FA01EE01D4
:1002A0006408ED00ED176508EC006608EB001930F6
:1002B000EF006A08EB0203186D290130EC02031805
:1002C0006D29ED0203186D29EE0203186D29EE0A5F
:1002D000ED0AEC0A6A08EB079F296908EC0203188B
:1002E00088290130ED0203188829EE0203188829B5
:1002F000EE0AED0A6908EC076A08EB07031C9F2960
:10030000EC0A031D9F29ED0A031D9F29EE0A9F2970
:1003100068088038ED0203189E290130EE020318A8
:100320009E29EE0A68088038ED076908EC07031C6F
:100330007C29ED0A031D7C29EE0A7C297A14EF0B37
:10034000A229AD290310EB0DEC0DED0DEE0D031000
:10035000FA0DF90DF80DF00D5929701CB52903108F
:10036000F80CF90CFA0CF00CB829F7030319FA2968
:10037000F01BE1290310EB0DEC0DED0DEE0D6A08FD
:10038000EB020318CD290130EC020318CD29ED0250
:100390000318CD29EE02031CF0296908EC020318AA
:1003A000D8290130ED020318D829EE02031CF029E8
:1003B00068088038ED020318E1290130EE02031CC1
:1003C000F029FA0A031DF029F90A031DF029F80A99
:1003D000031DF029F70A0319FA29F80CF90CFA0C95
:1003E0006408EF006808EF06EF1FF829F817FE29E8
:1003F000F813FE29F701F801F901FA010800F701E5
:10040000F801F901FA018316A001A101A201A301DB
:1004100073087204710470040319402A2030A40088
:1004200003108312EC0DED0DEE0DEF0D8316A00DF4
:10043000A10DA20DA30D73082302031D292A720822
:100440002202031D292A71082102031D292A70088E
:100450002002031C3A2A7008A0027108031C710FC5
:10046000A1027208031C720FA2027308031C730F0F
:10047000A3020314F70DF80DF90DFA0DA40B102AC1
:10048000A03084008313831208000408E40063088A
:10049000E6000319642A6208EF006108EE006008B4
:1004A000ED005F08EC00F301F2012030F100823032
:1004B000F000A2207A08E2007908E1007808E00064
:1004C0007708DF00E60B4B2A6208EF006108EE00B8
:1004D0006008ED005F08EC006C08B63CEC00FA0127
:1004E0006D08F000ED170310ED0CEE0CEF0CFA0C9C
:1004F000F90CF80CF70CEC0B732AF01F8A2AF70999
:10050000F809F909FA09F70A0319F80A0319F90AA7
:100510000319FA0A7A08E2007908E1007808E00095
:100520007708DF00E21FA12AE403E416DF09E009EF
:10053000E109E209DF0A0319E00A0319E10A0319D4
:10054000E20A3B30EB009A30EA00CA30E900E801E9
:100550000A30E60063080319E40A6208EF00610844
:10056000EE006008ED005F08EC006B08F3006A081D
:10057000F2006908F1006808F000FF210008DF00C0
:10058000840A0008E000840A0008E100840A0008E8
:10059000E200FD308407F708031DE12A630A6602C2
:1005A0000319E12A64080319E32A0F3966020319C3
:1005B000DB2A0318172BE41B172B641BE32A2030BC
:1005C000122B2030E405E41EF22AE4126308031D16
:1005D000E4037708E4002D300C1EEC2A990064082F
:1005E000F700E40163086602031D012B7708E400AD
:1005F0002E300C1EF92A99006408F7002030E4051B
:1006000000303030E41E122BE4126308031DE403B3
:100610007708E4002D300C1E0B2B99006408F700BE
:10062000E4013030F70777080C1E142B99006B0893
:10063000EF006A08EE006908ED006808EC00F301BD
:10064000F201F1010A30F000FF217A08EB0079088D
:10065000EA007808E9007708E800E60BAD2A080010
:100660000030F8001F08C73978049F000330F700F6
:10067000F70B382B1F151F193B2B83161E088312EF
:10068000D9001E08DA003A3003178D0000308F00C1
:1006900003100D300313DF005220103084005A087D
:1006A000E0005908DF00E7010408E6006710831B3B
:1006B0006714E01F632BE617661EE60ADF09E009F0
:1006C000DF0A0319E00A600EF038E200E207E23EBA
:1006D000E300323EE50060080F39E307E307E50772
:1006E000E93EE400E407E4075F0E0F39E407E5079D
:1006F000E40DE50DE509E50D5F080F39E507E20DAD
:100700000730E1000A30E507E403031C832BE4070C
:10071000E303031C872BE307E203031C8B2BE20795
:10072000E103031C8F2B61308400831307306605BF
:10073000661384036605031DA42B661A840A661AD1
:10074000A42B2030F700C12B840765300402031965
:1007500066170008F700031DB52B661BB52B661A3C
:10076000C52BE619B52B2030C02BE61FBD2B2D3035
:10077000F70084036613E613C12BE61566123030CA
:10078000F70777080C1EC22B9900840A661FA52B59
:100790000D300C1EC92B99000A300C1ECD2B990070
:1007A0005A08E0005908DF008E30F7006008F800B2
:1007B0005F08F900FA01F808031DE82B7908F80032
:1007C000F9010830F702F808031DE82BF701F02BB8
:1007D0000310F81BEF2BF90DF80DF703E82BF813B6
:1007E000EF01EE012030ED008130EC007A08F300DB
:1007F0007908F2007808F1007708F000A220770865
:10080000DF007808E0007908E1007A08E200E600FD
:100810007908E5007808E4007708E300EA01E901D7
:10082000E8018930E70035217A08A3007908A200A1
:100830007808A1007708A0002308EF002208EE0046
:100840002108ED002008EC00F301F2017A30F100FC
:100850008830F000A2207A08DE007908DD007808F0
:10086000DC007708DB00443003178D0000308F0078
:10087000031015300313DF005220893084005E0816
:10088000E2005D08E1005C08E0005B08DF00023088
:10089000E30045224F3003178D0000308F00031412
:1008A00004300313DF0052208A150A12B02880306A
:1008B0008318DE06E301E4015A08E2005E08E2065E
:1008C00059080319472DE100F7005D080319502D61
:1008D000E1020319EC2C031CAA2C5E08E700E717C1
:1008E0005F08E6006008E500E4010310E70CE60C91
:1008F000E50CE40CE10B742CE21F812C6314642DD5
:100900006310611063165C3084008313792D6312C9
:10091000E21B942C611C9F2CE70CE60CE50CE40C0C
:10092000F70A03195F2D9F2CE71BA22C0310E40D7F
:10093000E50DE60DE70DF70303195F2D942C631702
:100940000C2D63135A08E200E21FA82CE717582D5C
:10095000E713582D5D08E100F7005908E1025A0835
:10096000E700E7175B08E6005C08E500E401031018
:10097000E70CE60CE50CE40CE10BB62CE21FC32CF3
:10098000E314642DE3106110E316603084008313D8
:10099000792DE312E21BD62C611CE12CE70CE60C4E
:1009A000E50CE40CF70A03195F2DE12CE71BE42C9E
:1009B0000310E40DE50DE60DE70DF70303195F2DB8
:1009C000D62CE3170C2DE3135E08E200E21FEA2C9D
:1009D000E717582DE713582D5E08E700E7175F0863
:1009E000E6006008E500E21FF92CE7136315642DAB
:1009F0006311E40161105C3084008313792DE21BE4
:100A0000222D5A08E200611C0C2DE70CE60CE50CC7
:100A1000E40CF70A03195F2DE41F1D2DE50A031DE1
:100A20001D2DE60A031D1D2DE70A031D1D2DE70CD4
:100A3000E60CE50CF70A03195F2D631BA12CE31BE1
:100A4000E32C412D8030E706E71F2A2D642D5E0838
:100A5000E200372D5A08E200E708031D372DE608AB
:100A6000031D372DE508031D372DF701582DE71B12
:100A7000412D0310E40DE50DE60DE70DF70B372DC5
:100A80005F2DE21F452DE717582DE713582D5D0800
:100A9000F7005E08E7005F08E6006008E500582DF3
:100AA0005908F7005A08E7005B08E6005C08E50013
:100AB0006708F8006608F9006508FA00972DF70145
:100AC000F801F901FA01972DE401E509E609E709C2
:100AD000E409E40A031D722DE50A031D722DE60ADE
:100AE0000319E70A6318802CE318C22C6319F82C49
:100AF000272D0008E507031C832DE60A031D832D1F
:100B0000E70A0319611484030008E607031C8B2D10
:100B1000E70A0319611484030008801F803AE7077D
:100B200003186114631A872CE31AC92CFF2C0800E0
:100B3000CB30B3000530B2006830B1007C30B0007B
:100B40003830B700B030B6003C30B5008D30B4005E
:100B5000B630BB005030BA000330B9008F30B80057
:100B60009330BF00E830BE000630BD009430BC00BA
:100B70001130C3004530C200CD30C1009C30C000F0
:100B8000BA30C7001E30C6003430C500A230C400E1
:100B90007230CB00E530CA008930C900A730C800E8
:100BA0000D30CF00D230CE004930CD00AA30CC007D
:100BB000A830D3008A30D200E630D100AC30D0006B
:100BC0005308EF005208EE005108ED005008EC0009
:100BD0002B08F3002A08F2002908F1002808F00089
:100BE000A22083104F08DC004E08DB004D08DA001D
:100BF0004C08D9007A08E0007908DF007808DE00A8
:100C00007708DD0057242B08EF002A08EE0029089A
:100C1000ED002808EC007A08F3007908F200780863
:100C2000F1007708F000A22083104B08DC004A088E
:100C3000DB004908DA004808D9007A08E0007908A2
:100C4000DF007808DE007708DD0057242B08EF006E
:100C50002A08EE002908ED002808EC007A08F300C5
:100C60007908F2007808F1007708F000A2208310DC
:100C70004708DC004608DB004508DA004408D900D4
:100C80007A08E0007908DF007808DE007708DD00E8
:100C900057242B08EF002A08EE002908ED00280849
:100CA000EC007A08F3007908F2007808F100770880
:100CB000F000A22083104308DC004208DB0041085A
:100CC000DA004008D9007A08E0007908DF007808E7
:100CD000DE007708DD0057242B08EF002A08EE001D
:100CE0002908ED002808EC007A08F3007908F200E2
:100CF0007808F1007708F000A22083103F08DC009C
:100D00003E08DB003D08DA003C08D9007A08E00024
:100D10007908DF007808DE007708DD0057242B080B
:100D2000EF002A08EE002908ED002808EC007A08F8
:100D3000F3007908F2007808F1007708F000A220AB
:100D400083103B08DC003A08DB003908DA00380879
:100D5000D9007A08E0007908DF007808DE0077081B
:100D6000DD0057242B08EF002A08EE002908ED00CB
:100D70002808EC007A08F3007908F2007808F100FE
:100D80007708F000A22083103708DC003608DB006B
:100D90003508DA003408D9007A08E0007908DF0065
:100DA0007808DE007708DD0057242B08EF002A08BA
:100DB000EE002908ED002808EC007A08F300790815
:100DC000F2007808F1007708F000A22083103308C1
:100DD000DC003208DB003108DA003008D9007A087C
:100DE000E0007908DF007808DE007708DD0057248E
:100DF0007A08AF007908AE007808AD007708AC003B
:100E00008A150A12EA281430B3002A30B200C8301A
:100E1000B1007A30B0004A30B7004230B6001B3023
:100E2000B5008D30B400A230BB007D30BA00D530A3
:100E3000B9009030B8003030BF008830BE0030308C
:100E4000BD009630BC002230C300A530C200FC308B
:100E5000C1009A30C000F130C7009D30C60070302C
:100E6000C5009D30C4004708EF004608EE00450865
:100E7000ED004408EC002B08F3002A08F2002908D2
:100E8000F1002808F000A22083104308DC0042088B
:100E9000DB004108DA004008D9007A08E000790850
:100EA000DF007808DE007708DD0057242B08EF000C
:100EB0002A08EE002908ED002808EC007A08F30063
:100EC0007908F2007808F1007708F000A22083107A
:100ED0003F08DC003E08DB003D08DA003C08D90092
:100EE0007A08E0007908DF007808DE007708DD0086
:100EF00057242B08EF002A08EE002908ED002808E7
:100F0000EC007A08F3007908F2007808F10077081D
:100F1000F000A22083103B08DC003A08DB0039080F
:100F2000DA003808D9007A08E0007908DF0078088C
:100F3000DE007708DD0057242B08EF002A08EE00BA
:100F40002908ED002808EC007A08F3007908F2007F
:100F50007808F1007708F000A22083103708DC0041
:100F60003608DB003508DA003408D9007A08E000DA
:100F70007908DF007808DE007708DD0057242B08A9
:100F8000EF002A08EE002908ED002808EC007A0896
:100F9000F3007908F2007808F1007708F000A22049
:100FA00083103308DC003208DB003108DA00300837
:100FB000D9007A08E0007908DF007808DE007708B9
:100FC000DD0057247A08AF007908AE007808AD003C
:0A0FD0007708AC008A150A121529F3
:101000005A08E1005E08E106E11F0B2803110310F6
:10101000DA1B03143E285A08E1005D08E200590873
:10102000E20203191928E11F3E280308013A830050
:101030003E285E08E2005A08E20203192528E11F53
:101040003E280308013A83003E285F08E2005B085F
:10105000E20203193128E11F3E280308013A830008
:101060003E286008E2005C08E20203193D28E11F07
:101070003E280308013A83003E2803108A150A120D
:1010800066298E30F7005908F7025A08F9005B0804
:10109000F800F917F708031958280310F908031D79
:1010A0005428F80803195828F90CF80CF70B4D28A8
:1010B000DA1F5F28F809F909F80A0319F90A8A15ED
:1010C0000A1271295A308400831300080319762804
:1010D0000130F800F701F70B6B28F80B6A284A304B
:1010E000F700F70B71287428800B68288A150A12FC
:1010F0009F29840183131F308305193083169900BB
:10110000A630980090308312980083161F149F1405
:101110001F159F1107309C00FF308312D400FF3051
:101120008316850000308600FE3087008312D400CD
:1011300086015410540883168700831207148316FF
:101140001F1383121F179F1783169F1783121F14D5
:1011500083161F109F141F159F158A118312302BA1
:101160008A152308E6002208E5002108E40020088B
:10117000E300EA01E9014A30E8008530E7008A111E
:1011800035218A157A08AB007908AA007808A900E9
:101190007708A8002B08EF002A08EE002908ED00C8
:1011A0002808EC00F301F2017A30F1008830F000F9
:1011B0008A11A2208A157A08D8007908D700780801
:1011C000D6007708D500831685148312851C132951
:1011D0008A11982D8A15043003178D0000308F0076
:1011E00003101C300313DF008A1152208A15893046
:1011F00084005808E2005708E1005608E00055084E
:10120000DF000230E3008A1145228A1513300317EC
:101210008D0000308F00031004300313DF008A11AB
:1012200052208A153D298A11032F8A15163003177B
:101230008D0000308F0003101C300313DF008A1173
:1012400052208A15893084005808E2005708E100CE
:101250005608E0005508DF000230E3008A114522FD
:101260008A15253003178D0000308F0003100430DD
:101270000313DF008A1152208A1583102F08DC0027
:101280002E08DB002D08DA002C08D900E001DF0170
:101290007030DE008230DD008A1157248A157A080A
:1012A000AF007908AE007808AD007708AC002F08D1
:1012B000DC002E08DB002D08DA002C08D900E00144
:1012C000DF017E30DE008630DD000028031CA2290D
:1012D0002F08DC002E08DB002D08DA002C08D900CE
:1012E000412878088600283003178D0000308F00D1
:1012F00003101D300313DF008A1152208A15893034
:1013000084002F08E2002E08E1002D08E0002C08E0
:10131000DF000230E3008A1145228A1543300C1E9B
:101320008F2999000D300C1E932999000A300C1E4C
:10133000972999000430D900FA30DA006228D90BD5
:0E1340009C29A429FF3086008316AD28630087
:02400E00393F38
:00000001FF
;PIC16F877A
;CRC=1C4A  CREATED="29-May-11 20:37"
